{
  "_format": "hh-sol-artifact-1",
  "contractName": "Domains",
  "sourceName": "contracts/Domains.sol",
  "abi": [
    {
      "inputs": [
        {
          "internalType": "string",
          "name": "_tld",
          "type": "string"
        }
      ],
      "stateMutability": "payable",
      "type": "constructor"
    },
    {
      "inputs": [],
      "name": "AlreadyRegistered",
      "type": "error"
    },
    {
      "inputs": [
        {
          "internalType": "string",
          "name": "name",
          "type": "string"
        }
      ],
      "name": "InvalidName",
      "type": "error"
    },
    {
      "inputs": [],
      "name": "Unauthorized",
      "type": "error"
    },
    {
      "anonymous": false,
      "inputs": [
        {
          "indexed": true,
          "internalType": "address",
          "name": "owner",
          "type": "address"
        },
        {
          "indexed": true,
          "internalType": "address",
          "name": "approved",
          "type": "address"
        },
        {
          "indexed": true,
          "internalType": "uint256",
          "name": "tokenId",
          "type": "uint256"
        }
      ],
      "name": "Approval",
      "type": "event"
    },
    {
      "anonymous": false,
      "inputs": [
        {
          "indexed": true,
          "internalType": "address",
          "name": "owner",
          "type": "address"
        },
        {
          "indexed": true,
          "internalType": "address",
          "name": "operator",
          "type": "address"
        },
        {
          "indexed": false,
          "internalType": "bool",
          "name": "approved",
          "type": "bool"
        }
      ],
      "name": "ApprovalForAll",
      "type": "event"
    },
    {
      "anonymous": false,
      "inputs": [
        {
          "indexed": true,
          "internalType": "address",
          "name": "from",
          "type": "address"
        },
        {
          "indexed": true,
          "internalType": "address",
          "name": "to",
          "type": "address"
        },
        {
          "indexed": true,
          "internalType": "uint256",
          "name": "tokenId",
          "type": "uint256"
        }
      ],
      "name": "Transfer",
      "type": "event"
    },
    {
      "inputs": [
        {
          "internalType": "address",
          "name": "to",
          "type": "address"
        },
        {
          "internalType": "uint256",
          "name": "tokenId",
          "type": "uint256"
        }
      ],
      "name": "approve",
      "outputs": [],
      "stateMutability": "nonpayable",
      "type": "function"
    },
    {
      "inputs": [
        {
          "internalType": "address",
          "name": "owner",
          "type": "address"
        }
      ],
      "name": "balanceOf",
      "outputs": [
        {
          "internalType": "uint256",
          "name": "",
          "type": "uint256"
        }
      ],
      "stateMutability": "view",
      "type": "function"
    },
    {
      "inputs": [
        {
          "internalType": "string",
          "name": "",
          "type": "string"
        }
      ],
      "name": "domains",
      "outputs": [
        {
          "internalType": "address",
          "name": "",
          "type": "address"
        }
      ],
      "stateMutability": "view",
      "type": "function"
    },
    {
      "inputs": [
        {
          "internalType": "string",
          "name": "name",
          "type": "string"
        }
      ],
      "name": "getAddress",
      "outputs": [
        {
          "internalType": "address",
          "name": "",
          "type": "address"
        }
      ],
      "stateMutability": "view",
      "type": "function"
    },
    {
      "inputs": [],
      "name": "getAllNames",
      "outputs": [
        {
          "internalType": "string[]",
          "name": "",
          "type": "string[]"
        }
      ],
      "stateMutability": "view",
      "type": "function"
    },
    {
      "inputs": [
        {
          "internalType": "uint256",
          "name": "tokenId",
          "type": "uint256"
        }
      ],
      "name": "getApproved",
      "outputs": [
        {
          "internalType": "address",
          "name": "",
          "type": "address"
        }
      ],
      "stateMutability": "view",
      "type": "function"
    },
    {
      "inputs": [
        {
          "internalType": "string",
          "name": "name",
          "type": "string"
        }
      ],
      "name": "getRecord",
      "outputs": [
        {
          "internalType": "string",
          "name": "",
          "type": "string"
        }
      ],
      "stateMutability": "view",
      "type": "function"
    },
    {
      "inputs": [
        {
          "internalType": "address",
          "name": "owner",
          "type": "address"
        },
        {
          "internalType": "address",
          "name": "operator",
          "type": "address"
        }
      ],
      "name": "isApprovedForAll",
      "outputs": [
        {
          "internalType": "bool",
          "name": "",
          "type": "bool"
        }
      ],
      "stateMutability": "view",
      "type": "function"
    },
    {
      "inputs": [],
      "name": "isOwner",
      "outputs": [
        {
          "internalType": "bool",
          "name": "",
          "type": "bool"
        }
      ],
      "stateMutability": "view",
      "type": "function"
    },
    {
      "inputs": [],
      "name": "name",
      "outputs": [
        {
          "internalType": "string",
          "name": "",
          "type": "string"
        }
      ],
      "stateMutability": "view",
      "type": "function"
    },
    {
      "inputs": [
        {
          "internalType": "uint256",
          "name": "",
          "type": "uint256"
        }
      ],
      "name": "names",
      "outputs": [
        {
          "internalType": "string",
          "name": "",
          "type": "string"
        }
      ],
      "stateMutability": "view",
      "type": "function"
    },
    {
      "inputs": [],
      "name": "owner",
      "outputs": [
        {
          "internalType": "address payable",
          "name": "",
          "type": "address"
        }
      ],
      "stateMutability": "view",
      "type": "function"
    },
    {
      "inputs": [
        {
          "internalType": "uint256",
          "name": "tokenId",
          "type": "uint256"
        }
      ],
      "name": "ownerOf",
      "outputs": [
        {
          "internalType": "address",
          "name": "",
          "type": "address"
        }
      ],
      "stateMutability": "view",
      "type": "function"
    },
    {
      "inputs": [
        {
          "internalType": "string",
          "name": "name",
          "type": "string"
        }
      ],
      "name": "price",
      "outputs": [
        {
          "internalType": "uint256",
          "name": "",
          "type": "uint256"
        }
      ],
      "stateMutability": "pure",
      "type": "function"
    },
    {
      "inputs": [
        {
          "internalType": "string",
          "name": "",
          "type": "string"
        }
      ],
      "name": "records",
      "outputs": [
        {
          "internalType": "string",
          "name": "",
          "type": "string"
        }
      ],
      "stateMutability": "view",
      "type": "function"
    },
    {
      "inputs": [
        {
          "internalType": "string",
          "name": "name",
          "type": "string"
        },
        {
          "internalType": "string",
          "name": "cid",
          "type": "string"
        }
      ],
      "name": "register",
      "outputs": [],
      "stateMutability": "payable",
      "type": "function"
    },
    {
      "inputs": [
        {
          "internalType": "address",
          "name": "from",
          "type": "address"
        },
        {
          "internalType": "address",
          "name": "to",
          "type": "address"
        },
        {
          "internalType": "uint256",
          "name": "tokenId",
          "type": "uint256"
        }
      ],
      "name": "safeTransferFrom",
      "outputs": [],
      "stateMutability": "nonpayable",
      "type": "function"
    },
    {
      "inputs": [
        {
          "internalType": "address",
          "name": "from",
          "type": "address"
        },
        {
          "internalType": "address",
          "name": "to",
          "type": "address"
        },
        {
          "internalType": "uint256",
          "name": "tokenId",
          "type": "uint256"
        },
        {
          "internalType": "bytes",
          "name": "data",
          "type": "bytes"
        }
      ],
      "name": "safeTransferFrom",
      "outputs": [],
      "stateMutability": "nonpayable",
      "type": "function"
    },
    {
      "inputs": [
        {
          "internalType": "address",
          "name": "operator",
          "type": "address"
        },
        {
          "internalType": "bool",
          "name": "approved",
          "type": "bool"
        }
      ],
      "name": "setApprovalForAll",
      "outputs": [],
      "stateMutability": "nonpayable",
      "type": "function"
    },
    {
      "inputs": [
        {
          "internalType": "string",
          "name": "name",
          "type": "string"
        },
        {
          "internalType": "string",
          "name": "record",
          "type": "string"
        }
      ],
      "name": "setRecord",
      "outputs": [],
      "stateMutability": "nonpayable",
      "type": "function"
    },
    {
      "inputs": [
        {
          "internalType": "bytes4",
          "name": "interfaceId",
          "type": "bytes4"
        }
      ],
      "name": "supportsInterface",
      "outputs": [
        {
          "internalType": "bool",
          "name": "",
          "type": "bool"
        }
      ],
      "stateMutability": "view",
      "type": "function"
    },
    {
      "inputs": [],
      "name": "symbol",
      "outputs": [
        {
          "internalType": "string",
          "name": "",
          "type": "string"
        }
      ],
      "stateMutability": "view",
      "type": "function"
    },
    {
      "inputs": [],
      "name": "tld",
      "outputs": [
        {
          "internalType": "string",
          "name": "",
          "type": "string"
        }
      ],
      "stateMutability": "view",
      "type": "function"
    },
    {
      "inputs": [
        {
          "internalType": "uint256",
          "name": "tokenId",
          "type": "uint256"
        }
      ],
      "name": "tokenURI",
      "outputs": [
        {
          "internalType": "string",
          "name": "",
          "type": "string"
        }
      ],
      "stateMutability": "view",
      "type": "function"
    },
    {
      "inputs": [
        {
          "internalType": "address",
          "name": "from",
          "type": "address"
        },
        {
          "internalType": "address",
          "name": "to",
          "type": "address"
        },
        {
          "internalType": "uint256",
          "name": "tokenId",
          "type": "uint256"
        }
      ],
      "name": "transferFrom",
      "outputs": [],
      "stateMutability": "nonpayable",
      "type": "function"
    },
    {
      "inputs": [
        {
          "internalType": "string",
          "name": "name",
          "type": "string"
        }
      ],
      "name": "valid",
      "outputs": [
        {
          "internalType": "bool",
          "name": "",
          "type": "bool"
        }
      ],
      "stateMutability": "pure",
      "type": "function"
    },
    {
      "inputs": [],
      "name": "withdraw",
      "outputs": [],
      "stateMutability": "nonpayable",
      "type": "function"
    }
  ],
  "bytecode": "0x6080604052604051620048f2380380620048f2833981810160405281019062000029919062000492565b6040518060400160405280601381526020017f4b6566746573204e616d652053657276696365000000000000000000000000008152506040518060400160405280600381526020017f4b4e5300000000000000000000000000000000000000000000000000000000008152508160009080519060200190620000ad92919062000245565b508060019080519060200190620000c692919062000245565b50505033600c60006101000a81548173ffffffffffffffffffffffffffffffffffffffff021916908373ffffffffffffffffffffffffffffffffffffffff16021790555080600890805190602001906200012292919062000245565b506200016f6040518060400160405280601881526020017f2573206e616d652073657276696365206465706c6f7965640000000000000000815250826200017660201b62001a7a1760201c565b50620005e0565b6200021882826040516024016200018f92919062000540565b6040516020818303038152906040527f4b5c4277000000000000000000000000000000000000000000000000000000007bffffffffffffffffffffffffffffffffffffffffffffffffffffffff19166020820180517bffffffffffffffffffffffffffffffffffffffffffffffffffffffff83818316178352505050506200021c60201b60201c565b5050565b60008151905060006a636f6e736f6c652e6c6f679050602083016000808483855afa5050505050565b8280546200025390620005aa565b90600052602060002090601f016020900481019282620002775760008555620002c3565b82601f106200029257805160ff1916838001178555620002c3565b82800160010185558215620002c3579182015b82811115620002c2578251825591602001919060010190620002a5565b5b509050620002d29190620002d6565b5090565b5b80821115620002f1576000816000905550600101620002d7565b5090565b6000604051905090565b600080fd5b600080fd5b600080fd5b600080fd5b6000601f19601f8301169050919050565b7f4e487b7100000000000000000000000000000000000000000000000000000000600052604160045260246000fd5b6200035e8262000313565b810181811067ffffffffffffffff8211171562000380576200037f62000324565b5b80604052505050565b600062000395620002f5565b9050620003a3828262000353565b919050565b600067ffffffffffffffff821115620003c657620003c562000324565b5b620003d18262000313565b9050602081019050919050565b60005b83811015620003fe578082015181840152602081019050620003e1565b838111156200040e576000848401525b50505050565b60006200042b6200042584620003a8565b62000389565b9050828152602081018484840111156200044a57620004496200030e565b5b62000457848285620003de565b509392505050565b600082601f83011262000477576200047662000309565b5b81516200048984826020860162000414565b91505092915050565b600060208284031215620004ab57620004aa620002ff565b5b600082015167ffffffffffffffff811115620004cc57620004cb62000304565b5b620004da848285016200045f565b91505092915050565b600081519050919050565b600082825260208201905092915050565b60006200050c82620004e3565b620005188185620004ee565b93506200052a818560208601620003de565b620005358162000313565b840191505092915050565b600060408201905081810360008301526200055c8185620004ff565b90508181036020830152620005728184620004ff565b90509392505050565b7f4e487b7100000000000000000000000000000000000000000000000000000000600052602260045260246000fd5b60006002820490506001821680620005c357607f821691505b60208210811415620005da57620005d96200057b565b5b50919050565b61430280620005f06000396000f3fe60806040526004361061019c5760003560e01c80636352211e116100ec578063b88d4fde1161008a578063c87b56dd11610064578063c87b56dd14610603578063e985e9c514610640578063fb825e5f1461067d578063fe2c6198146106a85761019c565b8063b88d4fde14610574578063bf40fac11461059d578063c1880a98146105da5761019c565b80638f32d59b116100c65780638f32d59b146104b857806395d89b41146104e35780639791c0971461050e578063a22cb4651461054b5761019c565b80636352211e1461041357806370a08231146104505780638da5cb5b1461048d5761019c565b806326449235116101595780633ffbd47f116101335780633ffbd47f1461035457806342842e0e146103705780634622ab0314610399578063541e771d146103d65761019c565b806326449235146102d55780632d551432146103125780633ccfd60b1461033d5761019c565b806301ffc9a7146101a157806306fdde03146101de578063081812fc14610209578063095ea7b31461024657806311dd88451461026f57806323b872dd146102ac575b600080fd5b3480156101ad57600080fd5b506101c860048036038101906101c39190612d99565b6106e5565b6040516101d59190612de1565b60405180910390f35b3480156101ea57600080fd5b506101f36107c7565b6040516102009190612e95565b60405180910390f35b34801561021557600080fd5b50610230600480360381019061022b9190612eed565b610859565b60405161023d9190612f5b565b60405180910390f35b34801561025257600080fd5b5061026d60048036038101906102689190612fa2565b61089f565b005b34801561027b57600080fd5b5061029660048036038101906102919190613047565b6109b7565b6040516102a39190612e95565b60405180910390f35b3480156102b857600080fd5b506102d360048036038101906102ce9190613094565b610a6a565b005b3480156102e157600080fd5b506102fc60048036038101906102f79190613217565b610aca565b6040516103099190612f5b565b60405180910390f35b34801561031e57600080fd5b50610327610b13565b6040516103349190612e95565b60405180910390f35b34801561034957600080fd5b50610352610ba1565b005b61036e60048036038101906103699190613260565b610c67565b005b34801561037c57600080fd5b5061039760048036038101906103929190613094565b611010565b005b3480156103a557600080fd5b506103c060048036038101906103bb9190612eed565b611030565b6040516103cd9190612e95565b60405180910390f35b3480156103e257600080fd5b506103fd60048036038101906103f89190613217565b6110d0565b60405161040a9190612e95565b60405180910390f35b34801561041f57600080fd5b5061043a60048036038101906104359190612eed565b611186565b6040516104479190612f5b565b60405180910390f35b34801561045c57600080fd5b50610477600480360381019061047291906132e1565b611238565b604051610484919061331d565b60405180910390f35b34801561049957600080fd5b506104a26112f0565b6040516104af9190613359565b60405180910390f35b3480156104c457600080fd5b506104cd611316565b6040516104da9190612de1565b60405180910390f35b3480156104ef57600080fd5b506104f861136e565b6040516105059190612e95565b60405180910390f35b34801561051a57600080fd5b5061053560048036038101906105309190613047565b611400565b6040516105429190612de1565b60405180910390f35b34801561055757600080fd5b50610572600480360381019061056d91906133a0565b6114b4565b005b34801561058057600080fd5b5061059b60048036038101906105969190613481565b6114ca565b005b3480156105a957600080fd5b506105c460048036038101906105bf9190613047565b61152c565b6040516105d19190612f5b565b60405180910390f35b3480156105e657600080fd5b5061060160048036038101906105fc9190613260565b611577565b005b34801561060f57600080fd5b5061062a60048036038101906106259190612eed565b611652565b6040516106379190612e95565b60405180910390f35b34801561064c57600080fd5b5061066760048036038101906106629190613504565b611765565b6040516106749190612de1565b60405180910390f35b34801561068957600080fd5b506106926117f9565b60405161069f9190613650565b60405180910390f35b3480156106b457600080fd5b506106cf60048036038101906106ca9190613047565b6119d7565b6040516106dc919061331d565b60405180910390f35b60007f80ac58cd000000000000000000000000000000000000000000000000000000007bffffffffffffffffffffffffffffffffffffffffffffffffffffffff1916827bffffffffffffffffffffffffffffffffffffffffffffffffffffffff191614806107b057507f5b5e139f000000000000000000000000000000000000000000000000000000007bffffffffffffffffffffffffffffffffffffffffffffffffffffffff1916827bffffffffffffffffffffffffffffffffffffffffffffffffffffffff1916145b806107c057506107bf82611b16565b5b9050919050565b6060600080546107d6906136a1565b80601f0160208091040260200160405190810160405280929190818152602001828054610802906136a1565b801561084f5780601f106108245761010080835404028352916020019161084f565b820191906000526020600020905b81548152906001019060200180831161083257829003601f168201915b5050505050905090565b600061086482611b80565b6004600083815260200190815260200160002060009054906101000a900473ffffffffffffffffffffffffffffffffffffffff169050919050565b60006108aa82611186565b90508073ffffffffffffffffffffffffffffffffffffffff168373ffffffffffffffffffffffffffffffffffffffff16141561091b576040517f08c379a000000000000000000000000000000000000000000000000000000000815260040161091290613745565b60405180910390fd5b8073ffffffffffffffffffffffffffffffffffffffff1661093a611bcb565b73ffffffffffffffffffffffffffffffffffffffff161480610969575061096881610963611bcb565b611765565b5b6109a8576040517f08c379a000000000000000000000000000000000000000000000000000000000815260040161099f906137d7565b60405180910390fd5b6109b28383611bd3565b505050565b6060600a83836040516109cb929190613827565b908152602001604051809103902080546109e4906136a1565b80601f0160208091040260200160405190810160405280929190818152602001828054610a10906136a1565b8015610a5d5780601f10610a3257610100808354040283529160200191610a5d565b820191906000526020600020905b815481529060010190602001808311610a4057829003601f168201915b5050505050905092915050565b610a7b610a75611bcb565b82611c8c565b610aba576040517f08c379a0000000000000000000000000000000000000000000000000000000008152600401610ab1906138b2565b60405180910390fd5b610ac5838383611d21565b505050565b6009818051602081018201805184825260208301602085012081835280955050505050506000915054906101000a900473ffffffffffffffffffffffffffffffffffffffff1681565b60088054610b20906136a1565b80601f0160208091040260200160405190810160405280929190818152602001828054610b4c906136a1565b8015610b995780601f10610b6e57610100808354040283529160200191610b99565b820191906000526020600020905b815481529060010190602001808311610b7c57829003601f168201915b505050505081565b610ba9611316565b610bb257600080fd5b600047905060003373ffffffffffffffffffffffffffffffffffffffff1682604051610bdd90613903565b60006040518083038185875af1925050503d8060008114610c1a576040519150601f19603f3d011682016040523d82523d6000602084013e610c1f565b606091505b5050905080610c63576040517f08c379a0000000000000000000000000000000000000000000000000000000008152600401610c5a90613964565b60405180910390fd5b5050565b600073ffffffffffffffffffffffffffffffffffffffff1660098585604051610c91929190613827565b908152602001604051809103902060009054906101000a900473ffffffffffffffffffffffffffffffffffffffff1673ffffffffffffffffffffffffffffffffffffffff1614610d0d576040517f3a81d6fc00000000000000000000000000000000000000000000000000000000815260040160405180910390fd5b610d178484611400565b610d5a5783836040517f7f19f48d000000000000000000000000000000000000000000000000000000008152600401610d519291906139b1565b60405180910390fd5b600073ffffffffffffffffffffffffffffffffffffffff1660098585604051610d84929190613827565b908152602001604051809103902060009054906101000a900473ffffffffffffffffffffffffffffffffffffffff1673ffffffffffffffffffffffffffffffffffffffff1614610dd357600080fd5b6000610ddf85856119d7565b905080341015610e24576040517f08c379a0000000000000000000000000000000000000000000000000000000008152600401610e1b90613a21565b60405180910390fd5b6000610e306007611f88565b9050610f2460405180606001604052806031815260200161429c6031913987878080601f016020809104026020016040519081016040528093929190818152602001838380828437600081840152601f19601f8201169050808301925050505050505060088054610ea0906136a1565b80601f0160208091040260200160405190810160405280929190818152602001828054610ecc906136a1565b8015610f195780601f10610eee57610100808354040283529160200191610f19565b820191906000526020600020905b815481529060010190602001808311610efc57829003601f168201915b505050505084611f96565b610f2e3382612038565b610f7c8185858080601f016020809104026020016040519081016040528093929190818152602001838380828437600081840152601f19601f82011690508083019250505050505050612056565b3360098787604051610f8f929190613827565b908152602001604051809103902060006101000a81548173ffffffffffffffffffffffffffffffffffffffff021916908373ffffffffffffffffffffffffffffffffffffffff1602179055508585600b60008481526020019081526020016000209190610ffd929190612c04565b5061100860076120ca565b505050505050565b61102b838383604051806020016040528060008152506114ca565b505050565b600b602052806000526040600020600091509050805461104f906136a1565b80601f016020809104026020016040519081016040528092919081815260200182805461107b906136a1565b80156110c85780601f1061109d576101008083540402835291602001916110c8565b820191906000526020600020905b8154815290600101906020018083116110ab57829003601f168201915b505050505081565b600a818051602081018201805184825260208301602085012081835280955050505050506000915090508054611105906136a1565b80601f0160208091040260200160405190810160405280929190818152602001828054611131906136a1565b801561117e5780601f106111535761010080835404028352916020019161117e565b820191906000526020600020905b81548152906001019060200180831161116157829003601f168201915b505050505081565b6000806002600084815260200190815260200160002060009054906101000a900473ffffffffffffffffffffffffffffffffffffffff169050600073ffffffffffffffffffffffffffffffffffffffff168173ffffffffffffffffffffffffffffffffffffffff16141561122f576040517f08c379a000000000000000000000000000000000000000000000000000000000815260040161122690613a8d565b60405180910390fd5b80915050919050565b60008073ffffffffffffffffffffffffffffffffffffffff168273ffffffffffffffffffffffffffffffffffffffff1614156112a9576040517f08c379a00000000000000000000000000000000000000000000000000000000081526004016112a090613b1f565b60405180910390fd5b600360008373ffffffffffffffffffffffffffffffffffffffff1673ffffffffffffffffffffffffffffffffffffffff168152602001908152602001600020549050919050565b600c60009054906101000a900473ffffffffffffffffffffffffffffffffffffffff1681565b6000600c60009054906101000a900473ffffffffffffffffffffffffffffffffffffffff1673ffffffffffffffffffffffffffffffffffffffff163373ffffffffffffffffffffffffffffffffffffffff1614905090565b60606001805461137d906136a1565b80601f01602080910402602001604051908101604052809291908181526020018280546113a9906136a1565b80156113f65780601f106113cb576101008083540402835291602001916113f6565b820191906000526020600020905b8154815290600101906020018083116113d957829003601f168201915b5050505050905090565b6000600361145184848080601f016020809104026020016040519081016040528093929190818152602001838380828437600081840152601f19601f820116905080830192505050505050506120e0565b101580156114ac5750600a6114a984848080601f016020809104026020016040519081016040528093929190818152602001838380828437600081840152601f19601f820116905080830192505050505050506120e0565b11155b905092915050565b6114c66114bf611bcb565b8383612295565b5050565b6114db6114d5611bcb565b83611c8c565b61151a576040517f08c379a0000000000000000000000000000000000000000000000000000000008152600401611511906138b2565b60405180910390fd5b61152684848484612402565b50505050565b600060098383604051611540929190613827565b908152602001604051809103902060009054906101000a900473ffffffffffffffffffffffffffffffffffffffff16905092915050565b60098484604051611589929190613827565b908152602001604051809103902060009054906101000a900473ffffffffffffffffffffffffffffffffffffffff1673ffffffffffffffffffffffffffffffffffffffff163373ffffffffffffffffffffffffffffffffffffffff161461161c576040517f82b4290000000000000000000000000000000000000000000000000000000000815260040160405180910390fd5b8181600a8686604051611630929190613827565b9081526020016040518091039020919061164b929190612c04565b5050505050565b606061165d82611b80565b600060066000848152602001908152602001600020805461167d906136a1565b80601f01602080910402602001604051908101604052809291908181526020018280546116a9906136a1565b80156116f65780601f106116cb576101008083540402835291602001916116f6565b820191906000526020600020905b8154815290600101906020018083116116d957829003601f168201915b50505050509050600061170761245e565b905060008151141561171d578192505050611760565b60008251111561175257808260405160200161173a929190613b70565b60405160208183030381529060405292505050611760565b61175b84612475565b925050505b919050565b6000600560008473ffffffffffffffffffffffffffffffffffffffff1673ffffffffffffffffffffffffffffffffffffffff16815260200190815260200160002060008373ffffffffffffffffffffffffffffffffffffffff1673ffffffffffffffffffffffffffffffffffffffff16815260200190815260200160002060009054906101000a900460ff16905092915050565b60606118396040518060400160405280601f81526020017f47657474696e6720616c6c206e616d65732066726f6d20636f6e7472616374008152506124dd565b60006118456007611f88565b67ffffffffffffffff81111561185e5761185d6130ec565b5b60405190808252806020026020018201604052801561189157816020015b606081526020019060019003908161187c5790505b50905060005b6118a16007611f88565b8110156119cf57600b600082815260200190815260200160002080546118c6906136a1565b80601f01602080910402602001604051908101604052809291908181526020018280546118f2906136a1565b801561193f5780601f106119145761010080835404028352916020019161193f565b820191906000526020600020905b81548152906001019060200180831161192257829003601f168201915b505050505082828151811061195757611956613b94565b5b60200260200101819052506119bc6040518060400160405280601781526020017f4e616d6520666f7220746f6b656e202564206973202573000000000000000000815250828484815181106119af576119ae613b94565b5b6020026020010151612576565b80806119c790613bf2565b915050611897565b508091505090565b600080611a2784848080601f016020809104026020016040519081016040528093929190818152602001838380828437600081840152601f19601f820116905080830192505050505050506120e0565b905060008111611a3657600080fd5b6003811415611a4f576611c37937e08000915050611a74565b6004811415611a6857660aa87bee538000915050611a74565b66038d7ea4c680009150505b92915050565b611b128282604051602401611a90929190613c3b565b6040516020818303038152906040527f4b5c4277000000000000000000000000000000000000000000000000000000007bffffffffffffffffffffffffffffffffffffffffffffffffffffffff19166020820180517bffffffffffffffffffffffffffffffffffffffffffffffffffffffff8381831617835250505050612615565b5050565b60007f01ffc9a7000000000000000000000000000000000000000000000000000000007bffffffffffffffffffffffffffffffffffffffffffffffffffffffff1916827bffffffffffffffffffffffffffffffffffffffffffffffffffffffff1916149050919050565b611b898161263e565b611bc8576040517f08c379a0000000000000000000000000000000000000000000000000000000008152600401611bbf90613a8d565b60405180910390fd5b50565b600033905090565b816004600083815260200190815260200160002060006101000a81548173ffffffffffffffffffffffffffffffffffffffff021916908373ffffffffffffffffffffffffffffffffffffffff160217905550808273ffffffffffffffffffffffffffffffffffffffff16611c4683611186565b73ffffffffffffffffffffffffffffffffffffffff167f8c5be1e5ebec7d5bd14f71427d1e84f3dd0314c0f7b2291e5b200ac8c7c3b92560405160405180910390a45050565b600080611c9883611186565b90508073ffffffffffffffffffffffffffffffffffffffff168473ffffffffffffffffffffffffffffffffffffffff161480611cda5750611cd98185611765565b5b80611d1857508373ffffffffffffffffffffffffffffffffffffffff16611d0084610859565b73ffffffffffffffffffffffffffffffffffffffff16145b91505092915050565b8273ffffffffffffffffffffffffffffffffffffffff16611d4182611186565b73ffffffffffffffffffffffffffffffffffffffff1614611d97576040517f08c379a0000000000000000000000000000000000000000000000000000000008152600401611d8e90613ce4565b60405180910390fd5b600073ffffffffffffffffffffffffffffffffffffffff168273ffffffffffffffffffffffffffffffffffffffff161415611e07576040517f08c379a0000000000000000000000000000000000000000000000000000000008152600401611dfe90613d76565b60405180910390fd5b611e128383836126aa565b611e1d600082611bd3565b6001600360008573ffffffffffffffffffffffffffffffffffffffff1673ffffffffffffffffffffffffffffffffffffffff1681526020019081526020016000206000828254611e6d9190613d96565b925050819055506001600360008473ffffffffffffffffffffffffffffffffffffffff1673ffffffffffffffffffffffffffffffffffffffff1681526020019081526020016000206000828254611ec49190613dca565b92505081905550816002600083815260200190815260200160002060006101000a81548173ffffffffffffffffffffffffffffffffffffffff021916908373ffffffffffffffffffffffffffffffffffffffff160217905550808273ffffffffffffffffffffffffffffffffffffffff168473ffffffffffffffffffffffffffffffffffffffff167fddf252ad1be2c89b69c2b068fc378daa952ba7f163c4a11628f55a4df523b3ef60405160405180910390a4611f838383836126af565b505050565b600081600001549050919050565b61203284848484604051602401611fb09493929190613e20565b6040516020818303038152906040527f9fd009f5000000000000000000000000000000000000000000000000000000007bffffffffffffffffffffffffffffffffffffffffffffffffffffffff19166020820180517bffffffffffffffffffffffffffffffffffffffffffffffffffffffff8381831617835250505050612615565b50505050565b6120528282604051806020016040528060008152506126b4565b5050565b61205f8261263e565b61209e576040517f08c379a000000000000000000000000000000000000000000000000000000000815260040161209590613eec565b60405180910390fd5b806006600084815260200190815260200160002090805190602001906120c5929190612c8a565b505050565b6001816000016000828254019250508190555050565b60008060008084519050600092505b8082101561228a57600085838151811061210c5761210b613b94565b5b602001015160f81c60f81b9050608060f81b817effffffffffffffffffffffffffffffffffffffffffffffffffffffffffffff1916101561215b576001836121549190613dca565b9250612276565b60e060f81b817effffffffffffffffffffffffffffffffffffffffffffffffffffffffffffff1916101561219d576002836121969190613dca565b9250612275565b60f060f81b817effffffffffffffffffffffffffffffffffffffffffffffffffffffffffffff191610156121df576003836121d89190613dca565b9250612274565b60f8801b817effffffffffffffffffffffffffffffffffffffffffffffffffffffffffffff19161015612220576004836122199190613dca565b9250612273565b60fc60f81b817effffffffffffffffffffffffffffffffffffffffffffffffffffffffffffff191610156122625760058361225b9190613dca565b9250612272565b60068361226f9190613dca565b92505b5b5b5b5b50828061228290613bf2565b9350506120ef565b829350505050919050565b8173ffffffffffffffffffffffffffffffffffffffff168373ffffffffffffffffffffffffffffffffffffffff161415612304576040517f08c379a00000000000000000000000000000000000000000000000000000000081526004016122fb90613f58565b60405180910390fd5b80600560008573ffffffffffffffffffffffffffffffffffffffff1673ffffffffffffffffffffffffffffffffffffffff16815260200190815260200160002060008473ffffffffffffffffffffffffffffffffffffffff1673ffffffffffffffffffffffffffffffffffffffff16815260200190815260200160002060006101000a81548160ff0219169083151502179055508173ffffffffffffffffffffffffffffffffffffffff168373ffffffffffffffffffffffffffffffffffffffff167f17307eab39ab6107e8899845ad3d59bd9653f200f220920489ca2b5937696c31836040516123f59190612de1565b60405180910390a3505050565b61240d848484611d21565b6124198484848461270f565b612458576040517f08c379a000000000000000000000000000000000000000000000000000000000815260040161244f90613fea565b60405180910390fd5b50505050565b606060405180602001604052806000815250905090565b606061248082611b80565b600061248a61245e565b905060008151116124aa57604051806020016040528060008152506124d5565b806124b4846128a6565b6040516020016124c5929190613b70565b6040516020818303038152906040525b915050919050565b612573816040516024016124f19190612e95565b6040516020818303038152906040527f41304fac000000000000000000000000000000000000000000000000000000007bffffffffffffffffffffffffffffffffffffffffffffffffffffffff19166020820180517bffffffffffffffffffffffffffffffffffffffffffffffffffffffff8381831617835250505050612615565b50565b61261083838360405160240161258e9392919061400a565b6040516020818303038152906040527fa3f5c739000000000000000000000000000000000000000000000000000000007bffffffffffffffffffffffffffffffffffffffffffffffffffffffff19166020820180517bffffffffffffffffffffffffffffffffffffffffffffffffffffffff8381831617835250505050612615565b505050565b60008151905060006a636f6e736f6c652e6c6f679050602083016000808483855afa5050505050565b60008073ffffffffffffffffffffffffffffffffffffffff166002600084815260200190815260200160002060009054906101000a900473ffffffffffffffffffffffffffffffffffffffff1673ffffffffffffffffffffffffffffffffffffffff1614159050919050565b505050565b505050565b6126be8383612a07565b6126cb600084848461270f565b61270a576040517f08c379a000000000000000000000000000000000000000000000000000000000815260040161270190613fea565b60405180910390fd5b505050565b60006127308473ffffffffffffffffffffffffffffffffffffffff16612be1565b15612899578373ffffffffffffffffffffffffffffffffffffffff1663150b7a02612759611bcb565b8786866040518563ffffffff1660e01b815260040161277b94939291906140a4565b602060405180830381600087803b15801561279557600080fd5b505af19250505080156127c657506040513d601f19601f820116820180604052508101906127c39190614105565b60015b612849573d80600081146127f6576040519150601f19603f3d011682016040523d82523d6000602084013e6127fb565b606091505b50600081511415612841576040517f08c379a000000000000000000000000000000000000000000000000000000000815260040161283890613fea565b60405180910390fd5b805181602001fd5b63150b7a0260e01b7bffffffffffffffffffffffffffffffffffffffffffffffffffffffff1916817bffffffffffffffffffffffffffffffffffffffffffffffffffffffff19161491505061289e565b600190505b949350505050565b606060008214156128ee576040518060400160405280600181526020017f30000000000000000000000000000000000000000000000000000000000000008152509050612a02565b600082905060005b6000821461292057808061290990613bf2565b915050600a826129199190614161565b91506128f6565b60008167ffffffffffffffff81111561293c5761293b6130ec565b5b6040519080825280601f01601f19166020018201604052801561296e5781602001600182028036833780820191505090505b5090505b600085146129fb576001826129879190613d96565b9150600a856129969190614192565b60306129a29190613dca565b60f81b8183815181106129b8576129b7613b94565b5b60200101907effffffffffffffffffffffffffffffffffffffffffffffffffffffffffffff1916908160001a905350600a856129f49190614161565b9450612972565b8093505050505b919050565b600073ffffffffffffffffffffffffffffffffffffffff168273ffffffffffffffffffffffffffffffffffffffff161415612a77576040517f08c379a0000000000000000000000000000000000000000000000000000000008152600401612a6e9061420f565b60405180910390fd5b612a808161263e565b15612ac0576040517f08c379a0000000000000000000000000000000000000000000000000000000008152600401612ab79061427b565b60405180910390fd5b612acc600083836126aa565b6001600360008473ffffffffffffffffffffffffffffffffffffffff1673ffffffffffffffffffffffffffffffffffffffff1681526020019081526020016000206000828254612b1c9190613dca565b92505081905550816002600083815260200190815260200160002060006101000a81548173ffffffffffffffffffffffffffffffffffffffff021916908373ffffffffffffffffffffffffffffffffffffffff160217905550808273ffffffffffffffffffffffffffffffffffffffff16600073ffffffffffffffffffffffffffffffffffffffff167fddf252ad1be2c89b69c2b068fc378daa952ba7f163c4a11628f55a4df523b3ef60405160405180910390a4612bdd600083836126af565b5050565b6000808273ffffffffffffffffffffffffffffffffffffffff163b119050919050565b828054612c10906136a1565b90600052602060002090601f016020900481019282612c325760008555612c79565b82601f10612c4b57803560ff1916838001178555612c79565b82800160010185558215612c79579182015b82811115612c78578235825591602001919060010190612c5d565b5b509050612c869190612d10565b5090565b828054612c96906136a1565b90600052602060002090601f016020900481019282612cb85760008555612cff565b82601f10612cd157805160ff1916838001178555612cff565b82800160010185558215612cff579182015b82811115612cfe578251825591602001919060010190612ce3565b5b509050612d0c9190612d10565b5090565b5b80821115612d29576000816000905550600101612d11565b5090565b6000604051905090565b600080fd5b600080fd5b60007fffffffff0000000000000000000000000000000000000000000000000000000082169050919050565b612d7681612d41565b8114612d8157600080fd5b50565b600081359050612d9381612d6d565b92915050565b600060208284031215612daf57612dae612d37565b5b6000612dbd84828501612d84565b91505092915050565b60008115159050919050565b612ddb81612dc6565b82525050565b6000602082019050612df66000830184612dd2565b92915050565b600081519050919050565b600082825260208201905092915050565b60005b83811015612e36578082015181840152602081019050612e1b565b83811115612e45576000848401525b50505050565b6000601f19601f8301169050919050565b6000612e6782612dfc565b612e718185612e07565b9350612e81818560208601612e18565b612e8a81612e4b565b840191505092915050565b60006020820190508181036000830152612eaf8184612e5c565b905092915050565b6000819050919050565b612eca81612eb7565b8114612ed557600080fd5b50565b600081359050612ee781612ec1565b92915050565b600060208284031215612f0357612f02612d37565b5b6000612f1184828501612ed8565b91505092915050565b600073ffffffffffffffffffffffffffffffffffffffff82169050919050565b6000612f4582612f1a565b9050919050565b612f5581612f3a565b82525050565b6000602082019050612f706000830184612f4c565b92915050565b612f7f81612f3a565b8114612f8a57600080fd5b50565b600081359050612f9c81612f76565b92915050565b60008060408385031215612fb957612fb8612d37565b5b6000612fc785828601612f8d565b9250506020612fd885828601612ed8565b9150509250929050565b600080fd5b600080fd5b600080fd5b60008083601f84011261300757613006612fe2565b5b8235905067ffffffffffffffff81111561302457613023612fe7565b5b6020830191508360018202830111156130405761303f612fec565b5b9250929050565b6000806020838503121561305e5761305d612d37565b5b600083013567ffffffffffffffff81111561307c5761307b612d3c565b5b61308885828601612ff1565b92509250509250929050565b6000806000606084860312156130ad576130ac612d37565b5b60006130bb86828701612f8d565b93505060206130cc86828701612f8d565b92505060406130dd86828701612ed8565b9150509250925092565b600080fd5b7f4e487b7100000000000000000000000000000000000000000000000000000000600052604160045260246000fd5b61312482612e4b565b810181811067ffffffffffffffff82111715613143576131426130ec565b5b80604052505050565b6000613156612d2d565b9050613162828261311b565b919050565b600067ffffffffffffffff821115613182576131816130ec565b5b61318b82612e4b565b9050602081019050919050565b82818337600083830152505050565b60006131ba6131b584613167565b61314c565b9050828152602081018484840111156131d6576131d56130e7565b5b6131e1848285613198565b509392505050565b600082601f8301126131fe576131fd612fe2565b5b813561320e8482602086016131a7565b91505092915050565b60006020828403121561322d5761322c612d37565b5b600082013567ffffffffffffffff81111561324b5761324a612d3c565b5b613257848285016131e9565b91505092915050565b6000806000806040858703121561327a57613279612d37565b5b600085013567ffffffffffffffff81111561329857613297612d3c565b5b6132a487828801612ff1565b9450945050602085013567ffffffffffffffff8111156132c7576132c6612d3c565b5b6132d387828801612ff1565b925092505092959194509250565b6000602082840312156132f7576132f6612d37565b5b600061330584828501612f8d565b91505092915050565b61331781612eb7565b82525050565b6000602082019050613332600083018461330e565b92915050565b600061334382612f1a565b9050919050565b61335381613338565b82525050565b600060208201905061336e600083018461334a565b92915050565b61337d81612dc6565b811461338857600080fd5b50565b60008135905061339a81613374565b92915050565b600080604083850312156133b7576133b6612d37565b5b60006133c585828601612f8d565b92505060206133d68582860161338b565b9150509250929050565b600067ffffffffffffffff8211156133fb576133fa6130ec565b5b61340482612e4b565b9050602081019050919050565b600061342461341f846133e0565b61314c565b9050828152602081018484840111156134405761343f6130e7565b5b61344b848285613198565b509392505050565b600082601f83011261346857613467612fe2565b5b8135613478848260208601613411565b91505092915050565b6000806000806080858703121561349b5761349a612d37565b5b60006134a987828801612f8d565b94505060206134ba87828801612f8d565b93505060406134cb87828801612ed8565b925050606085013567ffffffffffffffff8111156134ec576134eb612d3c565b5b6134f887828801613453565b91505092959194509250565b6000806040838503121561351b5761351a612d37565b5b600061352985828601612f8d565b925050602061353a85828601612f8d565b9150509250929050565b600081519050919050565b600082825260208201905092915050565b6000819050602082019050919050565b600082825260208201905092915050565b600061358c82612dfc565b6135968185613570565b93506135a6818560208601612e18565b6135af81612e4b565b840191505092915050565b60006135c68383613581565b905092915050565b6000602082019050919050565b60006135e682613544565b6135f0818561354f565b93508360208202850161360285613560565b8060005b8581101561363e578484038952815161361f85826135ba565b945061362a836135ce565b925060208a01995050600181019050613606565b50829750879550505050505092915050565b6000602082019050818103600083015261366a81846135db565b905092915050565b7f4e487b7100000000000000000000000000000000000000000000000000000000600052602260045260246000fd5b600060028204905060018216806136b957607f821691505b602082108114156136cd576136cc613672565b5b50919050565b7f4552433732313a20617070726f76616c20746f2063757272656e74206f776e6560008201527f7200000000000000000000000000000000000000000000000000000000000000602082015250565b600061372f602183612e07565b915061373a826136d3565b604082019050919050565b6000602082019050818103600083015261375e81613722565b9050919050565b7f4552433732313a20617070726f76652063616c6c6572206973206e6f7420746f60008201527f6b656e206f776e6572206e6f7220617070726f76656420666f7220616c6c0000602082015250565b60006137c1603e83612e07565b91506137cc82613765565b604082019050919050565b600060208201905081810360008301526137f0816137b4565b9050919050565b600081905092915050565b600061380e83856137f7565b935061381b838584613198565b82840190509392505050565b6000613834828486613802565b91508190509392505050565b7f4552433732313a2063616c6c6572206973206e6f7420746f6b656e206f776e6560008201527f72206e6f7220617070726f766564000000000000000000000000000000000000602082015250565b600061389c602e83612e07565b91506138a782613840565b604082019050919050565b600060208201905081810360008301526138cb8161388f565b9050919050565b600081905092915050565b50565b60006138ed6000836138d2565b91506138f8826138dd565b600082019050919050565b600061390e826138e0565b9150819050919050565b7f4661696c656420746f207769746864726177204d617469630000000000000000600082015250565b600061394e601883612e07565b915061395982613918565b602082019050919050565b6000602082019050818103600083015261397d81613941565b9050919050565b60006139908385612e07565b935061399d838584613198565b6139a683612e4b565b840190509392505050565b600060208201905081810360008301526139cc818486613984565b90509392505050565b7f4e6f7420656e6f756768204d6174696320706169640000000000000000000000600082015250565b6000613a0b601583612e07565b9150613a16826139d5565b602082019050919050565b60006020820190508181036000830152613a3a816139fe565b9050919050565b7f4552433732313a20696e76616c696420746f6b656e2049440000000000000000600082015250565b6000613a77601883612e07565b9150613a8282613a41565b602082019050919050565b60006020820190508181036000830152613aa681613a6a565b9050919050565b7f4552433732313a2061646472657373207a65726f206973206e6f74206120766160008201527f6c6964206f776e65720000000000000000000000000000000000000000000000602082015250565b6000613b09602983612e07565b9150613b1482613aad565b604082019050919050565b60006020820190508181036000830152613b3881613afc565b9050919050565b6000613b4a82612dfc565b613b5481856137f7565b9350613b64818560208601612e18565b80840191505092915050565b6000613b7c8285613b3f565b9150613b888284613b3f565b91508190509392505050565b7f4e487b7100000000000000000000000000000000000000000000000000000000600052603260045260246000fd5b7f4e487b7100000000000000000000000000000000000000000000000000000000600052601160045260246000fd5b6000613bfd82612eb7565b91507fffffffffffffffffffffffffffffffffffffffffffffffffffffffffffffffff821415613c3057613c2f613bc3565b5b600182019050919050565b60006040820190508181036000830152613c558185612e5c565b90508181036020830152613c698184612e5c565b90509392505050565b7f4552433732313a207472616e736665722066726f6d20696e636f72726563742060008201527f6f776e6572000000000000000000000000000000000000000000000000000000602082015250565b6000613cce602583612e07565b9150613cd982613c72565b604082019050919050565b60006020820190508181036000830152613cfd81613cc1565b9050919050565b7f4552433732313a207472616e7366657220746f20746865207a65726f2061646460008201527f7265737300000000000000000000000000000000000000000000000000000000602082015250565b6000613d60602483612e07565b9150613d6b82613d04565b604082019050919050565b60006020820190508181036000830152613d8f81613d53565b9050919050565b6000613da182612eb7565b9150613dac83612eb7565b925082821015613dbf57613dbe613bc3565b5b828203905092915050565b6000613dd582612eb7565b9150613de083612eb7565b9250827fffffffffffffffffffffffffffffffffffffffffffffffffffffffffffffffff03821115613e1557613e14613bc3565b5b828201905092915050565b60006080820190508181036000830152613e3a8187612e5c565b90508181036020830152613e4e8186612e5c565b90508181036040830152613e628185612e5c565b9050613e71606083018461330e565b95945050505050565b7f45524337323155524953746f726167653a2055524920736574206f66206e6f6e60008201527f6578697374656e7420746f6b656e000000000000000000000000000000000000602082015250565b6000613ed6602e83612e07565b9150613ee182613e7a565b604082019050919050565b60006020820190508181036000830152613f0581613ec9565b9050919050565b7f4552433732313a20617070726f766520746f2063616c6c657200000000000000600082015250565b6000613f42601983612e07565b9150613f4d82613f0c565b602082019050919050565b60006020820190508181036000830152613f7181613f35565b9050919050565b7f4552433732313a207472616e7366657220746f206e6f6e20455243373231526560008201527f63656976657220696d706c656d656e7465720000000000000000000000000000602082015250565b6000613fd4603283612e07565b9150613fdf82613f78565b604082019050919050565b6000602082019050818103600083015261400381613fc7565b9050919050565b600060608201905081810360008301526140248186612e5c565b9050614033602083018561330e565b81810360408301526140458184612e5c565b9050949350505050565b600081519050919050565b600082825260208201905092915050565b60006140768261404f565b614080818561405a565b9350614090818560208601612e18565b61409981612e4b565b840191505092915050565b60006080820190506140b96000830187612f4c565b6140c66020830186612f4c565b6140d3604083018561330e565b81810360608301526140e5818461406b565b905095945050505050565b6000815190506140ff81612d6d565b92915050565b60006020828403121561411b5761411a612d37565b5b6000614129848285016140f0565b91505092915050565b7f4e487b7100000000000000000000000000000000000000000000000000000000600052601260045260246000fd5b600061416c82612eb7565b915061417783612eb7565b92508261418757614186614132565b5b828204905092915050565b600061419d82612eb7565b91506141a883612eb7565b9250826141b8576141b7614132565b5b828206905092915050565b7f4552433732313a206d696e7420746f20746865207a65726f2061646472657373600082015250565b60006141f9602083612e07565b9150614204826141c3565b602082019050919050565b60006020820190508181036000830152614228816141ec565b9050919050565b7f4552433732313a20746f6b656e20616c7265616479206d696e74656400000000600082015250565b6000614265601c83612e07565b91506142708261422f565b602082019050919050565b6000602082019050818103600083015261429481614258565b905091905056fe5265676973746572696e672025732e2573206f6e2074686520636f6e7472616374207769746820746f6b656e4944202564a26469706673582212201fe2cdb5134cad5e0df137ce3b1847c18857213e580594e827c20de49be73ce664736f6c63430008090033",
  "linkReferences": {},
  "deployedLinkReferences": {}
}